:020000000130CD
:100030009000B77530007531007532007533007C63
:100040000512004BDCFB120080013F7F64E530931A
:10005000F580C2A71200A9D2A7E53193F580C2A608
:100060001200A9D2A6E53293F580C2A51200A9D24A
:10007000A5E53393F580C2A41200A9D2A4DFCE2255
:100080000530E530B40A217530000531E531B40A98
:10009000177531000532E532B40A0D7532000533AB
:1000A000E533B40A03753300227D32DDFE227E641F
:1000B0007D32DDFEDEFA22039F250D9949411F01A5
:0100C0000936
:00000001FF
