:03000000020914DE
:0C091400787FE4F6D8FD75814A02095B8B
:100B3C0075C0FFC2CDD2CCC2CB00D2CBE5C0332224
:100AF800120B3C40FBC2CDC2CCD2CB8FC000C2CBC4
:010B080022CA
:100B0900120B3C40FBD2CDC2CCD2CB8FC000C2CBA2
:010B190022B9
:0C0B4C007F01120AF87F057E00020AE417
:100A5800AE07ED7005EE24808003EE24C0FF120A75
:100A6800F8120886FF600C120B09740129F9E43AA0
:040A7800FA80EE22F0
:100ACC00AE07AC03ED7005EE24808003EE24C0FF6E
:080ADC00120AF8AF04020B0935
:1009A0007F38120AF87F057E00120AE47F38120AA7
:1009B000F87F057E00120AE47F38120AF87F057E70
:1009C00000120AE47F38120AF87F08120AF87F0141
:1009D000120AF87F06120AF81F7E00120AE47F0C42
:0309E000020AF810
:020B6A00002267
:080B58007F0B7EC0DEFEDFFC16
:010B60002272
:100AE400AD07AC06ED1DAE0470011C4E6005120B83
:040AF4005880F12213
:100B1A00EF1FAC0670011E4C60060000000080F05A
:010B2A0022A8
:1006C70068656C6C6F2045494520313934004D4FC2
:1006D700443120202020202020202000546865203D
:1006E70064656661756C74206D6F6465004D4F4479
:1006F7003220202020202020202000434F4D4D4134
:100707004E44204D6F6400557365204B3420546F61
:1007170020555044415445004D4F4433202020205C
:1007270020202020200053455420757070657220CA
:100737006C696D697400555345204B3420746F20E4
:10074700534554004175746F20646574656374691B
:100757006E6700486173206265656E2073656E740D
:10076700006B313D7570206B323D646F776E0025ED
:100777006400202020204B3420746F206578697432
:10078700005345542046696E6973680055534520E8
:100797004B312F4B3220746F2045786974005445D4
:1007A7004D50204F56455252554E21004B49434B11
:1007B700204B3420544F20434C4F534500414C416C
:1007C700524D207475726E6564206F6666006865A9
:0F07D7006C6C6F204549452031393420202000BB
:100AB200020E00230D112020205248202020202049
:090AC200202043011000010D0089
:10000E00752201120A7CC2C81209A07F057E001259
:10001E000AE4120B4C7F057E00120AE47BFF7A067F
:10002E0079C7E4FDFF120A58758901758CD8758A57
:10003E00F0D2AFD2A9D28CE4F51E751E64E4F51E83
:10004E001207E620A3427F1E7E00120AE420A33888
:10005E00C2CAD2C9D2C8120B4C7F057E00120AE466
:10006E007BFF7A0679D5E4FDFF120A587BFF7A06EC
:10007E0079E37D01E4FF120A5830A3FD7FC87E00AC
:10008E00120AE4E4F50DF51020A25B7F1E7E00122D
:10009E000AE420A251D2CAC2C9D2C8120B4C7F05A3
:1000AE007E00120AE47BFF7A0679F4E4FDFF120A61
:1000BE005830A2FD7FC87E00120AE41207E6120B2A
:1000CE004C7F057E00120AE47BFF7A077902E4FD7D
:1000DE00FF120A587BFF7A07790E7D01E4FF120AA0
:1000EE0058E4F50DF51020A158E51070547F1EFE52
:1000FE00120AE420A14BD2CAD2C9C2C8120B4C7F3D
:10010E00057E00120AE47BFF7A07791FE4FDFF12D9
:10011E000A5830A1FD7FC87E00120AE4D2C8120B25
:10012E004C7F057E00120AE47BFF7A07792DE4FDF1
:10013E00FF120A587BFF7A07793D7D01E4FF120A10
:10014E005820CA36120B4C7F057E00120AE47BFF44
:10015E007A07794BE4FDFF120A587B007A00791179
:10016E007D01E4FF120A58120B2B7B007A007911E5
:10017E00120A337FE87E03120AE420C977120B4C71
:10018E007F057E00120AE47BFF7A077902E4FDFF09
:10019E00120A587B007A0079117D01E4FF120A5889
:1001AE0020A04A7F1E7E00120AE420A040120B4CB3
:1001BE007F057E00120AE47BFF7A07795AE4FDFF81
:1001CE00120A587B007A0079117D01E4FF120A5859
:1001DE00120B2B7B007A007911120A337FE87E0313
:1001EE00120AE430A0FD7F647E00120AE47FC87E0E
:1001FE0000120AE420CA030202DE20C9030202DE54
:10020E0020C8030202DEE51060030202DE30A00306
:10021E000202DE7F1EFE120AE420A00D30A0FD7F3A
:10022E00647E00120AE4120B4C30A0777F057E002C
:10023E00120AE47BFF7A077968E4FDFF120A58750B
:10024E003AFF753B07753C76850E3D850F3E7B006C
:10025E007A0079231203C77BFF7A0779797D01E44F
:10026E00FF120A587B007A0079237D01E4FF120AFF
:10027E005820A3157F1E7E00120AE420A30B050F43
:10028E00E50F7002050E30A3FD20A29D7F1E7E009D
:10029E00120AE420A293E50F150F7002150E20A28C
:1002AE008880FBC2C81207E6120B4C7F057E001237
:1002BE000AE47BFF7A077988E4FDFF120A587BFF78
:1002CE007A0779937D01E4FF120A58E4F50DF510D3
:1002DE00C3E50A950FE50E6480F87480985003020A
:1002EE000048E50D6003020048D2CAD2C9B2C875F3
:1002FE001001120B4C7F057E00120AE47BFF7A0779
:10030E0079A5E4FDFF120A587BFF7A0779B37D01C8
:10031E00E4FF120A587FC87E00120AE420A0B17FC3
:10032E001E7E00120AE420A0A7D2C8750D01E4F5C6
:10033E0010120B4C7F057E00120AE47BFF7A0779C0
:10034E00C4E4FDFF120A587FDC7E05120AE47BFF2F
:0D035E007A0779D5E4FDFF120A580202DE8D
:03000B00020B6184
:090B6100758CD8758AF0051E326E
:100A7C00E4F594F593F592F591F596F595F5B4F5B5
:0B0A8C00B3F5CAF5C97F05FE020AE4BD
:100A9700D2977F017E00120B1AC2977F147E001235
:0B0AA7000AE4D2977F0A7E00020B1ABF
:1009E300E4F538F537E53825E0F5383097FD7F1421
:1009F3007E00120B1A30970505382097FD0537E561
:080A030037C3940840DFAF384F
:010A0B0022C8
:1007E600120A973097030208853097FD2097FD126D
:1007F60009E38F091209E38F0B1209E38F0A120925
:10080600E38F0C1209E38F087F0C7E00120B1AE5AA
:1008160009250BFFE433FE7C00EF250AFFEC3EFEC4
:10082600EF250CFFEC3EFEEF65087001EE7050E51B
:100836000975F00A842430F511E50975F00A84E596
:10084600F02430F512751320751452751548751677
:1008560020751720751820E50A75F00A842430F5EE
:1008660019E50A75F00A84E5F02430F51A751B2E91
:10087600E50C2430F51C751D43751E20751F2022BE
:100B2B00759850758E1575D7E075D6FEC2ABD2ACE5
:010B3B002297
:080003008F993099FDC299228A
:100A33008B378A388939AB37AA38A93912088660C7
:100A4300130539E5397002053814F9120886FF12C7
:050A5300000380E22217
:1009200002000EE493A3F8E493A34003F68001F2DF
:1009300008DFF48029E493A3F85407240CC8C333D8
:10094000C4540F4420C8834004F456800146F6DFA7
:10095000E4800B0102040810204080900AB2E47E7B
:10096000019360BCA3FF543F30E509541FFEE4939C
:10097000A360010ECF54C025E060A840B8E493A363
:10098000FAE493A3F8E493A3C8C582C8CAC583CA8E
:10099000F0A3C8C582C8CAC583CADFE9DEE780BE46
:010ACB00002A
:10088600BB010689828A83E0225002E722BBFE0270
:09089600E32289828A83E49322A3
:10036B00E546243AF8E60546227837300702783A14
:10037B00E475F0011208DE0208862000EB7F2ED216
:10038B00008018EF540F2490D43440D4FF30040B6A
:10039B00EF24BFB41A0050032461FFE54760021538
:1003AB0047054AE54A7002054930070D7837E47571
:1003BB00F0011208DEEF0208CC020A0C7403D2071C
:1003CB008003E4C207F5468B378A388939E4F54751
:1003DB00F549F54AE54760077F201203A680F575BE
:1003EB0048FFC201C200C202C203C205C206C20854
:1003FB00120374FF700D3007057F001203B7AF4A6D
:10040B00AE4922B4255FC2D5C204120374FF24D0B7
:10041B00B40A00501A75F00A784730D50508B6FFB4
:10042B000106C6A426F620D5047002D20380D92477
:10043B00CFB41A00EF5004C2E5D2040205B7D201C3
:10044B0080C6D20080C0D20280BCD2D580BAD20581
:10045B0080B47F201203A62002077401B547004029
:10046B00F112036BFF1203A60203DFD208D2068040
:10047B009512036BFB12036BFA12036BF94A4B7069
:10048B000679887A067BFF20022EE547602A7E00DC
:10049B008E8275830012089F60060EEE654870F021
:1004AB00C2D5EBC0E0EAC0E0E9C0E0EE1205FED039
:1004BB00E0F9D0E0FAD0E0FB120886FF60AAEBC0AF
:1004CB00E0EAC0E0E9C0E01203A6D0E02401F9D0D5
:1004DB00E03400FAD0E0FBE5480460DCD548D98075
:1004EB00877BFF7A0579FAD202809C79108002799A
:1004FB0008C206C2088008D2D5790A8004790AC2DC
:10050B00D5E548047002F548E4FAFDFEFF12036BD3
:10051B00FC7B0820011312036BFD7B1030000A12C9
:10052B00036BFE12036BFF7B20EC3382D592D5500D
:10053B0013C3E43000069FFFE49EFEE42001039DFD
:10054B00FDE49CFCE4CBF8C201EC700CCFCECDCC1F
:10055B00E824F8F870F38017C3EF33FFEE33FEEDAA
:10056B0033FDEC33FCEB33FB994002FB0FD8E9EB8B
:10057B00300105F8D0E0C448B201C0E00AEC4D4EA2
:10058B004F78207B0070C2EAB5480040BCC0E01237
:10059B000600D0F0D0E0200104C4C0E0C4B201C01A
:1005AB00F012038FD0F0D5F0EB0203DF1208EE044C
:1005BB007C5304F658044D4C04494204FA4F05028F
:0F05CB004405024904624305085504EC4604EC5C
:1005DA004504EC4706A85004512D04552E04782BE7
:1005EA0004592304762006912A0411480000047055
:1005FA003F3F3F00790AA2D5200314300509B910FC
:10060A00020404B9080104A2D520060250010420FC
:10061A0002689202B547005034C0E07F20300319C7
:10062A007F30A20272067205500F120657C202C22A
:10063A0006C205C2087F30800F300503E9C0E01208
:10064A0003A6300503D0E0F9D0E0B547CC30051752
:10065A007F30B9100C1203A67F583004077F7880C8
:10066A0003B908031203A63002057F2D0203A67FF1
:10067A00202008F87F2B2006F322920280CF286ED2
:10068A00756C6C2900D20112036B3001F8C2017833
:10069A004730D50108F60204112D50434958120378
:1006AA006B2403B405004001E49006A39312039758
:0D06BA00743A120397D2037547040204F648
:10089F00BB010CE58229F582E5833AF583E022500E
:1008AF0006E92582F8E622BBFE06E92582F8E22258
:0D08BF00E58229F582E5833AF583E4932272
:1008CC00BB010689828A83F0225002F722BBFE010B
:0208DC00F32205
:1008DE00FAE6FB0808E6F925F0F618E6CA3AF6221B
:1008EE00D083D082F8E4937012740193700DA3A399
:1008FE0093F8740193F5828883E4737402936860AD
:06090E00EFA3A3A380DFAC
:100A0C00EFB40A07740D120A17740A309811A899DA
:100A1C00B8130CC2983098FDA899C298B811F6304A
:070A2C0099FDC299F5992222
:00000001FF
