:0300000002090BE7
:0C090B00787FE4F6D8FD75814C0209529B
:100B6E0075C0FFC2CDD2CCC2CB00D2CBE5C03322F2
:100B2A00120B6E40FBC2CDC2CCD2CB8FC000C2CB5F
:010B3A002298
:100B3B00120B6E40FBD2CDC2CCD2CB8FC000C2CB3E
:010B4B002287
:0C0B7E007F01120B2A7F057E00020B167F
:100A8A00AE07ED7005EE24808003EE24C0FF120B42
:100A9A002A12087DFF600C120B3B740129F9E43A13
:040AAA00FA80EE22BE
:100AFE00AE07AC03ED7005EE24808003EE24C0FF3C
:080B0E00120B2AAF04020B3B9D
:100997007F38120B2A7F057E00120B167F38120B49
:1009A7002A7F057E00120B167F38120B2A7F057EE1
:1009B70000120B167F38120B2A7F08120B2A7F01B1
:1009C700120B2A7F06120B2A1F7E00120B167F0CB2
:0309D700020B2AE6
:020B930000223E
:080B8A007F0B7EC0DEFEDFFCE4
:010B92002240
:100B1600AD07AC06ED1DAE0470011C4E6005120B50
:040B26008A80F122AE
:100B4C00EF1FAC0670011E4C60060000000080F028
:010B5C002276
:1006BE0068656C6C6F2045494520313934004D4FCB
:1006CE004431202020202020202020005468652046
:1006DE0064656661756C74206D6F6465004D4F4482
:1006EE003220202020202020202000434F4D4D413D
:1006FE004E44204D6F6400557365204B3420546F6B
:10070E0020555044415445004D4F44332020202065
:10071E0020202020200053455420757070657220D3
:10072E006C696D697400555345204B3420746F20ED
:10073E00534554004175746F206465746563746924
:10074E006E6700486173206265656E2073656E7416
:10075E00006B313D7570206B323D646F776E0025F6
:10076E006400202020204B3420746F20657869743B
:10077E00005345542046696E6973680055534520F1
:10078E004B312F4B3220746F2045786974005445DD
:10079E004D50204F56455252554E21004B49434B1A
:1007AE00204B3420544F20434C4F534500414C4175
:1007BE00524D207475726E6564206F6666006865B2
:0F07CE006C6C6F204549452031393420202000C4
:100AE400020E00230D112020205248202020202017
:090AF400202043011000010D0057
:10036A00752201120AAEC2C81209977F057E0012D1
:10037A000B16120B7E7F057E00120B167BFF7A0688
:10038A0079BEE4FDFF120A8A7FE87E03120B167516
:10039A008902758C06758A06D2AFD2A9E4F51ED2F7
:1003AA008C20A3427F1E7E00120B1620A338C2CADD
:1003BA00D2C9D2C8120B7E7F057E00120B167BFFB4
:1003CA007A0679CCE4FDFF120A8A7BFF7A0679DA8B
:1003DA007D01E4FF120A8A30A3FD7FC87E00120B5A
:1003EA0016E4F50DF51020A25B7F1E7E00120B1697
:1003FA0020A251D2CAC2C9D2C8120B7E7F057E0082
:10040A00120B167BFF7A0679EBE4FDFF120A8A309B
:10041A00A2FD7FC87E00120B161207DD120B7E7F2B
:10042A00057E00120B167BFF7A0679F9E4FDFF12AE
:10043A000A8A7BFF7A0779057D01E4FF120A8AE4BA
:10044A00F50DF51020A158E51070547F1EFE120B11
:10045A001620A14BD2CAD2C9C2C8120B7E7F057E12
:10046A0000120B167BFF7A077916E4FDFF120A8A3F
:10047A0030A1FD7FC87E00120B16D2C8120B7E7FF8
:10048A00057E00120B167BFF7A077924E4FDFF1222
:10049A000A8A7BFF7A0779347D01E4FF120A8A20EF
:1004AA00CA36120B7E7F057E00120B167BFF7A0777
:1004BA007942E4FDFF120A8A7B007A0079117D01F4
:1004CA00E4FF120A8A120B5D7B007A007911120A84
:1004DA00657FE87E03120B1620C970120B7E7F051A
:1004EA007E00120B167BFF7A0679F9E4FDFF120AE9
:1004FA008A7B007A0079117D01E4FF120A8A20A022
:10050A004A7F1E7E00120B1620A040120B7E7F052A
:10051A007E00120B167BFF7A077951E4FDFF120A5F
:10052A008A7B007A0079117D01E4FF120A8A120B94
:10053A005D7B007A007911120A657FE87E03120B4F
:10054A001630A0FD7F647E00120B1620CA03020635
:10055A003120C90302063120C803020631E51060C2
:10056A000302063130A0030206317F1EFE120B166B
:10057A0020A00A30A0FD7F647E00120B1630A07AFC
:10058A00120B7E7F057E00120B167BFF7A07795FBE
:10059A00E4FDFF120A8A753AFF753B07753C6D85C3
:1005AA000E3D850F3E7B007A00792312006A7BFF9D
:1005BA007A0779707D01E4FF120A8A7B007A007952
:1005CA00237D01E4FF120A8A20A3157F1E7E0012F2
:1005DA000B1620A30B050FE50F7002050E30A3FDC5
:1005EA0020A29A7F1E7E00120B1620A290E50F15FC
:1005FA000F7002150E20A28580FBC2C81207DD12F9
:10060A000B7E7F057E00120B167BFF7A07797FE44B
:10061A00FDFF120A8A7BFF7A07798A7D01E4FF12BD
:10062A000A8AE4F50DF510C3E50A950FE50E648014
:10063A00F874809850030203ABE50D60030203AB24
:10064A00D2CAD2C9B2C8751001120B7E7F057E00CC
:10065A00120B167BFF7A07799CE4FDFF120A8A7B4C
:10066A00FF7A0779AA7D01E4FF120A8A7FC87E0011
:10067A00120B1620A0B17F1E7E00120B1620A0A717
:10068A00D2C8750D01E4F510120B7E7F057E0012AB
:10069A000B167BFF7A0779BBE4FDFF120A8A7FDC1F
:1006AA007E05120B167BFF7A0779CCE4FDFF120A4E
:0406BA008A02063179
:03000B000209DA0D
:1009DA00C0E0C0F0C083C082C0D075D000C000C0E3
:1009EA0001C002C003C004C005C006C0071207DD6B
:1009FA00D007D006D005D004D003D002D001D00051
:0B0A0A00D0D0D082D083D0F0D0E032FA
:100AAE00E4F594F593F592F591F596F595F5B4F583
:0B0ABE00B3F5CAF5C97F05FE020B1658
:100AC900D2977F017E00120B4CC2977F147E0012D1
:0B0AD9000B16D2977F0A7E00020B4C28
:100A1500E4F54CF54BE54C25E0F54C3097FD7F149E
:100A25007E00120B4C309705054C2097FD054BE5D4
:080A35004BC3940840DFAF4CF5
:010A3D002296
:1007DD00120AC930970302087C3097FD2097FD124D
:1007ED000A158F09120A158F0B120A158F0A120A94
:1007FD00158F0C120A158F087F0C7E00120B4CE51D
:10080D0009250BFFE433FE7C00EF250AFFEC3EFECD
:10081D00EF250CFFEC3EFEEF65087001EE7050E524
:10082D000975F00A842430F511E50975F00A84E59F
:10083D00F02430F512751320751452751548751680
:10084D0020751720751820E50A75F00A842430F5F7
:10085D0019E50A75F00A84E5F02430F51A751B2E9A
:10086D00E50C2430F51C751D43751E20751F2022C7
:100B5D00759850758E1575D7E075D6FEC2ABD2ACB3
:010B6D002265
:080003008F993099FDC299228A
:100A65008B378A388939AB37AA38A93912087D609E
:100A7500130539E5397002053814F912087DFF129E
:050A8500000380E222E5
:1009170002036AE493A3F8E493A34003F68001F289
:1009270008DFF48029E493A3F85407240CC8C333E1
:10093700C4540F4420C8834004F456800146F6DFB0
:10094700E4800B0102040810204080900AE4E47E52
:10095700019360BCA3FF543F30E509541FFEE493A5
:10096700A360010ECF54C025E060A840B8E493A36C
:10097700FAE493A3F8E493A3C8C582C8CAC583CA97
:10098700F0A3C8C582C8CAC583CADFE9DEE780BE4F
:010AFD0000F8
:10087D00BB010689828A83E0225002E722BBFE0279
:09088D00E32289828A83E49322AC
:10000E00E546243AF8E60546227837300702783A74
:10001E00E475F0011208D502087D2000EB7F2ED288
:10002E00008018EF540F2490D43440D4FF30040BCA
:10003E00EF24BFB41A0050032461FFE54760021598
:10004E0047054AE54A7002054930070D7837E475D1
:10005E00F0011208D5EF0208C3020A3E7403D2075C
:10006E008003E4C207F5468B378A388939E4F547B1
:10007E00F549F54AE54760077F2012004980F5757E
:10008E0048FFC201C200C202C203C205C206C208B4
:10009E00120017FF700D3007057F0012005AAF4A8D
:1000AE00AE4922B4255FC2D5C204120017FF24D078
:1000BE00B40A00501A75F00A784730D50508B6FF15
:1000CE000106C6A426F620D5047002D20380D924D8
:1000DE00CFB41A00EF5004C2E5D20402025AD20184
:1000EE0080C6D20080C0D20280BCD2D580BAD205E2
:1000FE0080B47F201200492002077401B5470040EA
:10010E00F112000EFF120049020082D208D20680C0
:10011E009512000EFB12000EFA12000EF94A4B70E9
:10012E0006792B7A037BFF20022EE547602A7E009C
:10013E008E8275830012089660060EEE654870F08A
:10014E00C2D5EBC0E0EAC0E0E9C0E0EE1202A1D0F9
:10015E00E0F9D0E0FAD0E0FB12087DFF60AAEBC018
:10016E00E0EAC0E0E9C0E0120049D0E02401F9D095
:10017E00E03400FAD0E0FBE5480460DCD548D980D5
:10018E00877BFF7A02799DD202809C79108002795A
:10019E0008C206C2088008D2D5790A8004790AC23C
:1001AE00D5E548047002F548E4FAFDFEFF12000E94
:1001BE00FC7B0820011312000EFD7B1030000A128A
:1001CE00000EFE12000EFF7B20EC3382D592D5502E
:1001DE0013C3E43000069FFFE49EFEE42001039D5E
:1001EE00FDE49CFCE4CBF8C201EC700CCFCECDCC80
:1001FE00E824F8F870F38017C3EF33FFEE33FEED0B
:10020E0033FDEC33FCEB33FB994002FB0FD8E9EBEB
:10021E00300105F8D0E0C448B201C0E00AEC4D4E02
:10022E004F78207B0070C2EAB5480040BCC0E01297
:10023E0002A3D0F0D0E0200104C4C0E0C4B201C0DB
:10024E00F0120032D0F0D5F0EB0200821208E50178
:10025E001F5301995800F04C00EC42019D4F01A52F
:0F026E004401A54901054301AB55018F46018F9E
:10027D0045018F47034B5000F42D00F82E011B2B29
:10028D0000FC2301192003342A00B4480000011397
:10029D003F3F3F00790AA2D5200314300509B9105C
:1002AD00020404B9080104A2D5200602500104205D
:1002BD0002689202B547005034C0E07F2030031928
:1002CD007F30A20272067205500F1202FAC202C2EC
:1002DD0006C205C2087F30800F300503E9C0E01269
:1002ED000049300503D0E0F9D0E0B547CC30051713
:1002FD007F30B9100C1200497F583004077F788089
:10030D0003B908031200493002057F2D0200497F11
:10031D00202008F87F2B2006F322920280CF286E32
:10032D00756C6C2900D20112000E3001F8C20178F3
:10033D004730D50108F60200B42D5043495812003C
:10034D000E2403B405004001E49003469312003AD5
:0D035D00743A12003AD20375470402019968
:10089600BB010CE58229F582E5833AF583E0225017
:1008A60006E92582F8E622BBFE06E92582F8E22261
:0D08B600E58229F582E5833AF583E493227B
:1008C300BB010689828A83F0225002F722BBFE0114
:0208D300F3220E
:1008D500FAE6FB0808E6F925F0F618E6CA3AF62224
:1008E500D083D082F8E4937012740193700DA3A3A2
:1008F50093F8740193F5828883E4737402936860B6
:06090500EFA3A3A380DFB5
:100A3E00EFB40A07740D120A49740A309811A89976
:100A4E00B8130CC2983098FDA899C298B811F63018
:070A5E0099FDC299F59922F0
:00000001FF
