:030000000208CC27
:0C08CC00787FE4F6D8FD75814B0209131B
:100AF50075C0FFC2CDD2CCC2CB00D2CBE5C033226C
:100AB100120AF540FBC2CDC2CCD2CB8FC000C2CB53
:010AC1002212
:100AC200120AF540FBD2CDC2CCD2CB8FC000C2CB32
:010AD2002201
:0C0B05007F01120AB17F057E00020A9DEC
:100A1000AE07ED7005EE24808003EE24C0FF120ABD
:100A2000B112083EFF600C120AC2740129F9E43ABF
:040A3000FA80EE2238
:100A8500AE07AC03ED7005EE24808003EE24C0FFB5
:080A9500120AB1AF04020AC20B
:100958007F38120AB17F057E00120A9D7F38120A7D
:10096800B17F057E00120A9D7F38120AB17F057E8D
:1009780000120A9D7F38120AB17F08120AB17F015E
:10098800120AB17F06120AB11F7E00120A9D7F0C5F
:03099800020AB19F
:020B22000022AF
:080B11007F0B7EC0DEFEDFFC5D
:010B190022B9
:100A9D00AD07AC06ED1DAE0470011C4E6005120BCA
:040AAD001180F122A1
:100AD300EF1FAC0670011E4C60060000000080F0A2
:010AE30022F0
:10067F0068656C6C6F2045494520313934004D4F0A
:10068F004431202020202020202020005468652085
:10069F0064656661756C74206D6F6465004D4F44C1
:1006AF003220202020202020202000434F4D4D417C
:1006BF004E44204D6F6400557365204B3420546FAA
:1006CF0020555044415445004D4F443320202020A5
:1006DF002020202020005345542075707065722013
:1006EF006C696D697400555345204B3420746F202D
:1006FF00534554004175746F206465746563746964
:10070F006E6700486173206265656E2073656E7455
:10071F00202020202020006B313D7570206B323D52
:10072F00646F776E00256400202020204B342074E6
:10073F006F2065786974005345542046696E69735C
:10074F006800555345204B312F4B3220746F204595
:10075F007869740054454D50204F56455252554EAE
:10076F0021004B49434B204B3420544F20434C4FD7
:10077F00534500414C41524D207475726E65642093
:10078F006F66660068656C6C6F204549452031398E
:05079F003420202000C1
:100A6A00020E001E0E112020205248202020202095
:0A0A7A0020204320011000010D00B0
:10035F00E4F522752301120A34C2C81209587F0529
:10036F007E00120A9D120B057F057E00120A9D7BEF
:10037F00FF7A06797FE4FDFF120A107FE87E0312F1
:10038F000A9D1207A420A3427F1E7E00120A9D2001
:10039F00A338C2CAD2C9D2C8120B057F057E00127C
:1003AF000A9D7BFF7A06798DE4FDFF120A107BFF11
:1003BF007A06799B7D01E4FF120A1030A3FD7FC8F6
:1003CF007E00120A9DE4F50DF51020A25B7F1E7EC4
:1003DF0000120A9D20A251D2CAC2C9D2C8120B055F
:1003EF007F057E00120A9D7BFF7A0679ACE4FDFF44
:1003FF00120A1030A2FD7FC87E00120A9D1207A4B8
:10040F00120B057F057E00120A9D7BFF7A0679BAD3
:10041F00E4FDFF120A107BFF7A0679C67D01E4FF27
:10042F00120A10E4F50DF51020A158E51070547F55
:10043F001EFE120A9D20A14BD2CAD2C9C2C8120BEE
:10044F00057F057E00120A9D7BFF7A0679D7E4FDB2
:10045F00FF120A1030A1FD7FC87E00120A9DD2C87C
:10046F00120B057F057E00120A9D7BFF7A0679E548
:10047F00E4FDFF120A107BFF7A0679F57D01E4FF98
:10048F00120A1020CA36120B057F057E00120A9D34
:10049F007BFF7A077903E4FDFF120A107B007A00D5
:1004AF0079117D01E4FF120A10120AE47B007A0031
:1004BF0079111209EB7FE87E03120A9D20C95212AF
:1004CF000B057F057E00120A9D7BFF7A0679BAE441
:1004DF00FDFF120A107B007A0079117D01E4FF12F3
:1004EF000A1020A02C7F1E7E00120A9D20A0227BC6
:1004FF00FF7A077912E4FDFF120A10120AE47B005B
:10050F007A0079111209EB7FE87E03120A9D30A061
:10051F00FD20CA030205FC20C9030205FC20C80305
:10052F000205FCE51060030205FC30A0030205FC88
:10053F007F1EFE120A9D20A00A30A0FD7F647E0060
:10054F00120A9D30A07A120B057F057E00120A9DBC
:10055F007BFF7A077926E4FDFF120A10753BFF75C2
:10056F003C07753D34850E3E850F3F7B007A007941
:10057F002412005F7BFF7A0779377D01E4FF120AAF
:10058F00107B007A0079247D01E4FF120A1020A36A
:10059F00157F1E7E00120A9D20A30B050FE50F701D
:1005AF0002050E30A3FD20A29A7F1E7E00120A9D27
:1005BF0020A290E50F150F7002150E20A28580FB6B
:1005CF00C2C81207A4120B057F057E00120A9D7B7D
:1005DF00FF7A077946E4FDFF120A107BFF7A07794D
:1005EF00517D01E4FF120A10E4F50DF510C3E50A81
:1005FF00950FE50E6480F87480985003020391E51F
:10060F000D6003020391D2CAD2C9B2C8751001128C
:10061F000B057F057E00120A9D7BFF7A077963E445
:10062F00FDFF120A107BFF7A0779717D01E4FF123B
:10063F000A107FC87E00120A9D20A0B1D2C8750D86
:10064F0001E4F510120B057F057E00120A9D7BFF5A
:10065F007A077982E4FDFF120A107FDC7E05120A09
:10066F009D7BFF7A077993E4FDFF120A100205FCC8
:100A3400E4F594F593F592F591F596F595F5B4F5FD
:0B0A4400B3F5CAF5C97F05FE020A9D4C
:100A4F00D2977F017E00120AD3C2977F147E0012C5
:0B0A5F000A9DD2977F0A7E00020AD396
:10099B00E4F539F538E53925E0F5393097FD7F1465
:1009AB007E00120AD330970505392097FD0538E5EF
:0809BB0038C3940840DFAF3996
:0109C3002211
:1007A400120A4F30970302083D3097FD2097FD123F
:1007B400099B8F0912099B8F0B12099B8F0A12093F
:1007C4009B8F0C12099B8F087F0C7E00120AD3E5C5
:1007D40009250BFFE433FE7C00EF250AFFEC3EFE07
:1007E400EF250CFFEC3EFEEF65087001EE704AE564
:1007F4000975F00A842430F511E50975F00A84E5D9
:10080400F02430F5127513207514527515487516B9
:1008140020751720751820E50A75F00A842430F530
:1008240019E50A75F00A84E5F02430F51A751B2ED3
:0A083400E50C2430F51C751D43226D
:100AE400759850758E1575D7E075D6FEC2ABD2AC2D
:010AF40022DF
:080B1A008F993099FDC2992268
:1009EB008B388A39893AAB38AA39A93A12083E6052
:1009FB0013053AE53A7002053914F912083EFF1255
:050A0B000B1A80E2223D
:1008D80002035FE493A3F8E493A34003F68001F2D4
:1008E80008DFF48029E493A3F85407240CC8C33321
:1008F800C4540F4420C8834004F456800146F6DFF0
:10090800E4800B0102040810204080900A6AE47E0B
:10091800019360BCA3FF543F30E509541FFEE493E4
:10092800A360010ECF54C025E060A840B8E493A3AB
:10093800FAE493A3F8E493A3C8C582C8CAC583CAD6
:10094800F0A3C8C582C8CAC583CADFE9DEE780BE8E
:010A84000071
:10083E00BB010689828A83E0225002E722BBFE02B8
:09084E00E32289828A83E49322EB
:10000300E547243BF8E60547227838300702783B7A
:10001300E475F00112089602083E2000EB7F2ED211
:10002300008018EF540F2490D43440D4FF30040BD5
:10003300EF24BFB41A0050032461FFE548600215A2
:1000430048054BE54B7002054A30070D7838E475D7
:10005300F001120896EF0208840209C47403D20760
:100063008003E4C207F5478B388A39893AE4F548B7
:10007300F54AF54BE54860077F2012003E80F57591
:1000830049FFC201C200C202C203C205C206C208BE
:1000930012000CFF700D3007057F0012004FAF4BAD
:1000A300AE4A22B4255FC2D5C20412000CFF24D08D
:1000B300B40A00501A75F00A784830D50508B6FF1F
:1000C3000106C6A426F620D5047002D20380D924E3
:1000D300CFB41A00EF5004C2E5D20402024FD2019A
:1000E30080C6D20080C0D20280BCD2D580BAD205ED
:1000F30080B47F2012003E2002077401B5480040FF
:10010300F1120003FF12003E020077D208D20680EC
:1001130095120003FB120003FA120003F94A4B7015
:100123000679207A037BFF20022EE548602A7E00B1
:100133008E8275830012085760060EEE654970F0D3
:10014300C2D5EBC0E0EAC0E0E9C0E0EE120296D00F
:10015300E0F9D0E0FAD0E0FB12083EFF60AAEBC062
:10016300E0EAC0E0E9C0E012003ED0E02401F9D0AB
:10017300E03400FAD0E0FBE5490460DCD549D980DE
:10018300877BFF7A027992D202809C791080027970
:1001930008C206C2088008D2D5790A8004790AC247
:1001A300D5E549047002F549E4FAFDFEFF120003A8
:1001B300FC7B08200113120003FD7B1030000A12A0
:1001C3000003FE120003FF7B20EC3382D592D5504F
:1001D30013C3E43000069FFFE49EFEE42001039D69
:1001E300FDE49CFCE4CBF8C201EC700CCFCECDCC8B
:1001F300E824F8F870F38017C3EF33FFEE33FEED16
:1002030033FDEC33FCEB33FB994002FB0FD8E9EBF6
:10021300300105F8D0E0C448B201C0E00AEC4D4E0D
:100223004F78207B0070C2EAB5490040BCC0E012A1
:100233000298D0F0D0E0200104C4C0E0C4B201C0F1
:10024300F0120027D0F0D5F0EB0200771208A601D8
:100253001453018E5800E54C00E14201924F019A7C
:0F02630044019A4900FA4301A0550184460184E1
:100272004501844703405000E92D00ED2E01102B6B
:1002820000F123010E2003292A00A94800000108D9
:100292003F3F3F00790AA2D5200314300509B91067
:1002A200020404B9080104A2D52006025001042068
:1002B20002689202B548005034C0E07F2030031932
:1002C2007F30A20272067205500F1202EFC202C202
:1002D20006C205C2087F30800F300503E9C0E01274
:1002E200003E300503D0E0F9D0E0B548CC30051728
:1002F2007F30B9100C12003E7F583004077F78809F
:1003020003B9080312003E3002057F2D02003E7F32
:10031200202008F87F2B2006F322920280CF286E3D
:10032200756C6C2900D2011200033001F8C2017809
:100332004830D50108F60200A92D50434958120051
:10034200032403B405004001E490033B9312002F01
:0D035200743A12002FD20375480402018E88
:10085700BB010CE58229F582E5833AF583E0225056
:1008670006E92582F8E622BBFE06E92582F8E222A0
:0D087700E58229F582E5833AF583E49322BA
:10088400BB010689828A83F0225002F722BBFE0153
:02089400F3224D
:10089600FAE6FB0808E6F925F0F618E6CA3AF62263
:1008A600D083D082F8E4937012740193700DA3A3E1
:1008B60093F8740193F5828883E4737402936860F5
:0608C600EFA3A3A380DFF5
:1009C400EFB40A07740D1209CF740A309811A8996C
:1009D400B8130CC2983098FDA899C298B811F63093
:0709E40099FDC299F599226B
:00000001FF
