:03000000021106E4
:0C110600787FE4F6D8FD75814A02114D97
:1013310075C0FFC2CDD2CCC2CB00D2CBE5C0332227
:1012ED0012133140FBC2CDC2CCD2CB8FC000C2CBCA
:0112FD0022CE
:1012FE0012133140FBD2CDC2CCD2CB8FC000C2CBA9
:01130E0022BC
:0C1351007F011212ED7F057E000212D910
:10124A00AE07ED7005EE24808003EE24C0FF121273
:10125A00ED121078FF600C1212FE740129F9E43ABB
:04126A00FA80EE22F6
:1012C100AE07AC03ED7005EE24808003EE24C0FF71
:0812D1001212EDAF040212FE3F
:101192007F381212ED7F057E001212D97F381212AB
:1011A200ED7F057E001212D97F381212ED7F057E87
:1011B200001212D97F381212ED7F081212ED7F0150
:1011C2001212ED7F061212ED1F7E001212D97F0C51
:0311D2000212ED19
:02138000002249
:08135D007F0B7EC0DEFEDFFC09
:011365002265
:1012D900AD07AC06ED1DAE0470011C4E600512137E
:0412E9005D80F12211
:10130F00EF1FAC0670011E4C60060000000080F05D
:01131F0022AB
:100EB90068656C6C6F2045494520313934004D4FC8
:100EC9004431202020202020202020005468652043
:100ED90064656661756C74206D6F6465004D4F447F
:100EE9003220202020202020202000434F4D4D413A
:100EF9004E44204D6F6400557365204B3420546F68
:100F090020555044415445004D4F44332020202062
:100F190020202020200053455420757070657220D0
:100F29006C696D697400555345204B3420746F20EA
:100F3900534554004175746F206465746563746921
:100F49006E6700486173206265656E2073656E7413
:100F5900006B313D7570206B323D646F776E0025F3
:100F69006400202020204B3420746F206578697438
:100F7900005345542046696E6973680055534520EE
:100F89004B312F4B3220746F2045786974005445DA
:100F99004D50204F56455252554E21004B49434B17
:100FA900204B3420544F20434C4F534500414C4172
:100FB900524D207475726E6564206F6666006865AF
:0F0FC9006C6C6F204549452031393420202000C1
:10126E00020E00230D112020205248202020202085
:09127E00202043011000010D00C5
:1008000075220112128BC2C81211927F057E00124E
:1008100012D91213517F057E001212D97BFF7A0E76
:1008200079B9E4FDFF12124A758901758CD8758A71
:10083000F0D2AFD2A9D28CE4F51E751E64E4F51E89
:10084000120FD820A3427F1E7E001212D920A33897
:10085000C2CAD2C9D2C81213517F057E001212D962
:100860007BFF7A0E79C7E4FDFF12124A7BFF7A0EF6
:1008700079D57D01E4FF12124A30A3FD7FC87E00C6
:100880001212D9E4F50DF51020A25B7F1E7E001236
:1008900012D920A251D2CAC2C9D2C81213517F059F
:1008A0007E001212D97BFF7A0E79E6E4FDFF121268
:1008B0004A30A2FD7FC87E001212D9120FD812133F
:1008C000517F057E001212D97BFF7A0E79F4E4FD88
:1008D000FF12124A7BFF7A0F79007D01E4FF1212AA
:1008E0004AE4F50DF51020A158E51070547F1EFE66
:1008F0001212D920A14BD2CAD2C9C2C81213517F39
:10090000057E001212D97BFF7A0F7911E4FDFF12E8
:10091000124A30A1FD7FC87E001212D9D2C812132C
:10092000517F057E001212D97BFF7A0F791FE4FDFB
:10093000FF12124A7BFF7A0F792F7D01E4FF12121A
:100940004A20CA361213517F057E001212D97BFF4E
:100950007A0F793DE4FDFF12124A7B007A0079118B
:100960007D01E4FF12124A1213207B007A007911F4
:100970001212257FE87E031212D920C97712135173
:100980007F057E001212D97BFF7A0E79F4E4FDFF19
:1009900012124A7B007A0079117D01E4FF12124A9B
:1009A00020A04A7F1E7E001212D920A040121351AF
:1009B0007F057E001212D97BFF7A0F794CE4FDFF90
:1009C00012124A7B007A0079117D01E4FF12124A6B
:1009D0001213207B007A0079111212257FE87E0322
:1009E0001212D930A0FD7F647E001212D97FC87E1A
:1009F000001212D920CA03020AD020C903020AD069
:100A000020C803020AD0E5106003020AD030A00318
:100A1000020AD07F1EFE1212D920A00D30A0FD7F49
:100A2000647E001212D912135130A0777F057E0028
:100A30001212D97BFF7A0F795AE4FDFF12124A7520
:100A40003AFF753B0F753C68850E3D850F3E7B0078
:100A50007A007923120BB97BFF7A0F796B7D01E461
:100A6000FF12124A7B007A0079237D01E4FF121203
:100A70004A20A3157F1E7E001212D920A30B050F5A
:100A8000E50F7002050E30A3FD20A29D7F1E7E00A3
:100A90001212D920A293E50F150F7002150E20A295
:100AA0008880FBC2C8120FD81213517F057E001236
:100AB00012D97BFF7A0F797AE4FDFF12124A7BFF8D
:100AC0007A0F79857D01E4FF12124AE4F50DF510E5
:100AD000C3E50A950FE50E6480F874809850030210
:100AE000083AE50D600302083AD2CAD2C9B2C87505
:100AF00010011213517F057E001212D97BFF7A0F6D
:100B00007997E4FDFF12124A7BFF7A0F79A57D01E8
:100B1000E4FF12124A7FC87E001212D920A0B17FD2
:100B20001E7E001212D920A0A7D2C8750D01E4F5CF
:100B3000101213517F057E001212D97BFF7A0F79B4
:100B4000B6E4FDFF12124A7FDC7E051212D97BFF4C
:0D0B50007A0F79C7E4FDFF12124A020AD0A5
:03000B0002136677
:09136600758CD8758AF0051E3261
:10128B00E4F594F593F592F591F596F595F5B4F59E
:0B129B00B3F5CAF5C97F05FE0212D9A9
:1012A600D2977F017E0012130FC2977F147E001221
:0B12B60012D9D2977F0A7E0002130FAE
:1011D500E4F538F537E53825E0F5383097FD7F1427
:1011E5007E0012130F30970505382097FD0537E56A
:0811F50037C3940840DFAF3856
:0111FD0022CF
:100FD8001212A63097030210773097FD2097FD1262
:100FE80011D58F091211D58F0B1211D58F0A121135
:100FF800D58F0C1211D58F087F0C7E0012130FE5C8
:1010080009250BFFE433FE7C00EF250AFFEC3EFECA
:10101800EF250CFFEC3EFEEF65087001EE7050E521
:101028000975F00A842430F511E50975F00A84E59C
:10103800F02430F51275132075145275154875167D
:1010480020751720751820E50A75F00A842430F5F4
:1010580019E50A75F00A84E5F02430F51A751B2E97
:10106800E50C2430F51C751D43751E20751F2022C4
:10132000759850758E1575D7E075D6FEC2ABD2ACE8
:01133000229A
:081378008F993099FDC2992202
:101225008B378A388939AB37AA38A93912107860D3
:10123500130539E5397002053814F9121078FF12D3
:05124500137880E22295
:03128700011F0044
:10134100758901758CB8E4F58AD28CD2A9D28C2228
:03000B0002136F6E
:09136F00758CB8758A00051F3267
:10111200020800E493A3F8E493A34003F68001F2EB
:1011220008DFF48029E493A3F85407240CC8C333DE
:10113200C4540F4420C8834004F456800146F6DFAD
:10114200E4800B010204081020408090126EE47EBD
:10115200019360BCA3FF543F30E509541FFEE493A2
:10116200A360010ECF54C025E060A840B8E493A369
:10117200FAE493A3F8E493A3C8C582C8CAC583CA94
:10118200F0A3C8C582C8CAC583CADFE9DEE780BE4C
:01128A000063
:10107800BB010689828A83E0225002E722BBFE0276
:09108800E32289828A83E49322A9
:100B5D00E546243AF8E60546227837300702783A1A
:100B6D00E475F0011210D00210782000EB7F2ED228
:100B7D00008018EF540F2490D43440D4FF30040B70
:100B8D00EF24BFB41A0050032461FFE5476002153E
:100B9D0047054AE54A7002054930070D7837E47577
:100BAD00F0011210D0EF0210BE0211FE7403D20735
:100BBD008003E4C207F5468B378A388939E4F54757
:100BCD00F549F54AE54760077F20120B9880F575CA
:100BDD0048FFC201C200C202C203C205C206C2085A
:100BED00120B66FF700D3007057F00120BA9AF4A7F
:100BFD00AE4922B4255FC2D5C204120B66FF24D0C4
:100C0D00B40A00501A75F00A784730D50508B6FFBA
:100C1D000106C6A426F620D5047002D20380D9247D
:100C2D00CFB41A00EF5004C2E5D204020DA9D201CF
:100C3D0080C6D20080C0D20280BCD2D580BAD20587
:100C4D0080B47F20120B982002077401B547004035
:100C5D00F1120B5DFF120B98020BD1D208D2068058
:100C6D0095120B5DFB120B5DFA120B5DF94A4B7081
:100C7D0006797A7A0E7BFF20022EE547602A7E00E8
:100C8D008E8275830012109160060EEE654870F02D
:100C9D00C2D5EBC0E0EAC0E0E9C0E0EE120DF0D045
:100CAD00E0F9D0E0FAD0E0FB121078FF60AAEBC0BB
:100CBD00E0EAC0E0E9C0E0120B98D0E02401F9D0E1
:100CCD00E03400FAD0E0FBE5480460DCD548D9807B
:100CDD00877BFF7A0D79ECD202809C7910800279A6
:100CED0008C206C2088008D2D5790A8004790AC2E2
:100CFD00D5E548047002F548E4FAFDFEFF120B5DE0
:100D0D00FC7B08200113120B5DFD7B1030000A12D5
:100D1D000B5DFE120B5DFF7B20EC3382D592D5501F
:100D2D0013C3E43000069FFFE49EFEE42001039D03
:100D3D00FDE49CFCE4CBF8C201EC700CCFCECDCC25
:100D4D00E824F8F870F38017C3EF33FFEE33FEEDB0
:100D5D0033FDEC33FCEB33FB994002FB0FD8E9EB91
:100D6D00300105F8D0E0C448B201C0E00AEC4D4EA8
:100D7D004F78207B0070C2EAB5480040BCC0E0123D
:100D8D000DF2D0F0D0E0200104C4C0E0C4B201C027
:100D9D00F0120B81D0F0D5F0EB020BD11210E00C5C
:100DAD006E530CE8580C3F4C0C3B420CEC4F0CF4C2
:0F0DBD00440CF4490C54430CFA550CDE460CDE82
:100DCC00450CDE470E9A500C432D0C472E0C6A2B0B
:100DDC000C4B230C68200E832A0C034800000C6279
:100DEC003F3F3F00790AA2D5200314300509B91002
:100DFC00020404B9080104A2D52006025001042003
:100E0C0002689202B547005034C0E07F20300319CD
:100E1C007F30A20272067205500F120E49C202C236
:100E2C0006C205C2087F30800F300503E9C0E0120E
:100E3C000B98300503D0E0F9D0E0B547CC3005175E
:100E4C007F30B9100C120B987F583004077F7880D4
:100E5C0003B90803120B983002057F2D020B987F03
:100E6C00202008F87F2B2006F322920280CF286ED8
:100E7C00756C6C2900D201120B5D3001F8C201783F
:100E8C004730D50108F6020C032D50434958120B7C
:100E9C005D2403B405004001E4900E9593120B8978
:0D0EAC00743A120B89D203754704020CE85A
:10109100BB010CE58229F582E5833AF583E0225014
:1010A10006E92582F8E622BBFE06E92582F8E2225E
:0D10B100E58229F582E5833AF583E4932278
:1010BE00BB010689828A83F0225002F722BBFE0111
:0210CE00F3220B
:1010D000FAE6FB0808E6F925F0F618E6CA3AF62221
:1010E000D083D082F8E4937012740193700DA3A39F
:1010F00093F8740193F5828883E4737402936860B3
:06110000EFA3A3A380DFB2
:1011FE00EFB40A07740D121209740A309811A899E7
:10120E00B8130CC2983098FDA899C298B811F63050
:07121E0099FDC299F5992228
:00000001FF
