:03000000020FBC30
:0C0FBC00787FE4F6D8FD75814B0210032D
:1011E10075C0FFC2CDD2CCC2CB00D2CBE5C0332279
:10119D001211E140FBC2CDC2CCD2CB8FC000C2CB6D
:0111AD00221F
:1011AE001211E140FBD2CDC2CCD2CB8FC000C2CB4C
:0111BE00220E
:0C11F1007F0112119D7F057E0002118914
:10110000AE07ED7005EE24808003EE24C0FF1211BF
:101110009D120F2EFF600C1211AE740129F9E43AF2
:04112000FA80EE2241
:10115A00AE07AC03ED7005EE24808003EE24C0FFD9
:08116A0012119DAF040211AE49
:101048007F3812119D7F057E001211897F38121199
:101058009D7F057E001211897F3812119D7F057EC4
:10106800001211897F3812119D7F0812119D7F018E
:1010780012119D7F0612119D1F7E001211897F0C8F
:0310880002119DB5
:02120E000022BC
:0811FD007F0B7EC0DEFEDFFC6B
:0112050022C6
:10118900AD07AC06ED1DAE0470011C4E60051211D1
:04119900FD80F122C2
:1011BF00EF1FAC0670011E4C60060000000080F0AF
:0111CF0022FD
:100DCF0068656C6C6F2045494520313934004D4FB3
:100DDF004431202020202020202020004D4F44325D
:100DEF0020202020202020202000434F4D4D414E19
:100DFF0044204D6F6400557365204B3420546F2091
:100E0F00555044415445004D4F443320202020205D
:100E1F002020202000534554207570706572206C7F
:100E2F00696D697400555345204B3420746F2053FE
:100E3F004554004175746F20646574656374696E01
:100E4F0067006B313D7570206B323D646F776E00BC
:100E5F00256400202020204B3420746F2065786992
:100E6F0074005345542046696E69736800555345A5
:0F0E7F00204B312F4B3220746F2045786974005F
:10117200100A202020524820202020202020432016
:0611820020200208001EFF
:100B5C00E4F522752301121124C2C81210487F0536
:100B6C007E001211891211F17F057E001211897B12
:100B7C00FF7A0D79CFE4FDFF1211007FE87E03129E
:100B8C00118920A33D7F1E7E0012118920A333C240
:100B9C00CAD2C9D2C81211F17F057E001211897B0D
:100BAC00FF7A0D79DDE4FDFF121100E523B4010598
:100BBC00E4F523800375230130A3FD7FC87E00126A
:100BCC00118920A2567F1E7E0012118920A24CD2C0
:100BDC00CAC2C9D2C81211F17F057E001211897BDD
:100BEC00FF7A0D79EBE4FDFF12110030A2FD7FC8F6
:100BFC007E00121189120E8E1211F17F057E0012E9
:100C0C0011897BFF7A0D79F9E4FDFF1211007BFF4E
:100C1C007A0E79057D01E4FF12110020A1587F1E88
:100C2C007E0012118920A14ED2CAD2C9C2C812119B
:100C3C00F17F057E001211897BFF7A0E7916E4FD97
:100C4C00FF12110030A1FD7FC87E00121189D2C89D
:100C5C00120E8E1211F17F057E001211897BFF7A24
:100C6C000E7924E4FDFF1211007BFF7A0E79347D9E
:100C7C0001E4FF12110020CA2D120E8E1211F17F09
:100C8C00057E001211897BFF7A0E7942E4FDFF127A
:100C9C0011007B007A00790A7D01E4FF1211007FBC
:100CAC00C87E0012118920C93D20A03A7F1E7E000B
:100CBC0012118920A030120E8E1211F17F057E00C8
:100CCC001211897BFF7A0D79F9E4FDFF1211007B7B
:100CDC00007A00790A7D01E4FF12110030A0FD7F3B
:100CEC00647E0012118920CA03020B8E20C90302F4
:100CFC000B8E20C803020B8E30A003020B8E7F1EBE
:100D0C007E0012118920A00A30A0FD7F647E0012A3
:100D1C00118920A003020DA4120E8E1211F17F0571
:100D2C007E001211897BFF7A0E7951E4FDFF1211BE
:100D3C0000753BFF753C0E753D5F85083E85093F90
:100D4C007B007A00792412085C7BFF7A0E79627D35
:100D5C0001E4FF1211007B007A0079247D01E4FF8D
:100D6C0012110020A3157F1E7E0012118920A30BE7
:100D7C000509E5097002050830A3FD20A2947F1E29
:100D8C007E0012118920A28AE50915097002150846
:100D9C0030A203020D1E80F8C2C8120E8E1211F181
:100DAC007F057E001211897BFF7A0E7971E4FDFFBD
:100DBC001211007BFF7A0E797C7D01E4FF12110089
:030DCC00020B8E89
:10112400E4F594F593F592F591F596F595F5B4F506
:0B113400B3F5CAF5C97F05FE02118962
:10113F00D2977F017E001211BFC2977F147E0012DB
:0B114F001189D2977F0A7E000211BFB9
:10108B00E4F53EF53DE53E25E0F53E3097FD7F145A
:10109B007E001211BF309705053E2097FD053DE5FB
:0810AB003DC3940840DFAF3E95
:0110B300221A
:100E8E0012113F309703020F2D3097FD2097FD1260
:100E9E00108B8F3812108B8F3912108B8F3A1210D5
:100EAE008B8F3B12108B8F3C7F0C7E001211BFE597
:100EBE00382539FFE433FE7C00EF253AFFEC3EFE89
:100ECE00EF253BFFEC3EFEEF653C7001EE7050E50A
:100EDE003875F00A842430F50AE53875F00A84E591
:100EEE00F02430F50B750C20750D52750E48750FEC
:100EFE0020751020751120751220E53A75F00A84C0
:100F0E002430F513E53A75F00A84E5F02430F51433
:0F0F1E00E53B2430F5157516437517207518201F
:010F2D0022A1
:1011D000759850758E1575D7E075D6FEC2ABD2AC3A
:0111E00022EC
:081206008F993099FDC2992275
:1010DB008B1A8A1B891CAB1AAA1BA91C120F2E6018
:1010EB0013051CE51C7002051B14F9120F2EFF12C1
:0510FB00120680E22254
:100FC800020B5CE493A3F8E493A34003F68001F2D8
:100FD80008DFF48029E493A3F85407240CC8C3332A
:100FE800C4540F4420C8834004F456800146F6DFF9
:100FF800E4800B0102040810204080901172E47E06
:10100800019360BCA3FF543F30E509541FFEE493ED
:10101800A360010ECF54C025E060A840B8E493A3B4
:10102800FAE493A3F8E493A3C8C582C8CAC583CADF
:10103800F0A3C8C582C8CAC583CADFE9DEE780BE97
:011188000066
:100F2E00BB010689828A83E0225002E722BBFE02C1
:090F3E00E32289828A83E49322F4
:10080000E547243BF8E60547227838300702783B75
:10081000E475F001120F86020F2E2000EB7F2ED21E
:10082000008018EF540F2490D43440D4FF30040BD0
:10083000EF24BFB41A0050032461FFE5486002159D
:1008400048054BE54B7002054A30070D7838E475D2
:10085000F001120F86EF020F740210B47403D20776
:100860008003E4C207F5478B388A39893AE4F548B2
:10087000F54AF54BE54860077F2012083B80F57587
:1008800049FFC201C200C202C203C205C206C208B9
:10089000120809FF700D3007057F0012084CAF4B9E
:1008A000AE4A22B4255FC2D5C204120809FF24D083
:1008B000B40A00501A75F00A784830D50508B6FF1A
:1008C0000106C6A426F620D5047002D20380D924DE
:1008D000CFB41A00EF5004C2E5D204020A4CD20190
:1008E00080C6D20080C0D20280BCD2D580BAD205E8
:1008F00080B47F2012083B2002077401B5480040F5
:10090000F1120800FF12083B020874D208D20680D8
:1009100095120800FB120800FA120800F94A4B7001
:1009200006791D7A0B7BFF20022EE548602A7E00A7
:100930008E82758300120F4760060EEE654970F0D7
:10094000C2D5EBC0E0EAC0E0E9C0E0EE120A93D005
:10095000E0F9D0E0FAD0E0FB120F2EFF60AAEBC066
:10096000E0EAC0E0E9C0E012083BD0E02401F9D0A1
:10097000E03400FAD0E0FBE5490460DCD549D980D9
:10098000877BFF7A0A798FD202809C791080027966
:1009900008C206C2088008D2D5790A8004790AC242
:1009A000D5E549047002F549E4FAFDFEFF1208009E
:1009B000FC7B08200113120800FD7B1030000A1296
:1009C0000800FE120800FF7B20EC3382D592D55040
:1009D00013C3E43000069FFFE49EFEE42001039D64
:1009E000FDE49CFCE4CBF8C201EC700CCFCECDCC86
:1009F000E824F8F870F38017C3EF33FFEE33FEED11
:100A000033FDEC33FCEB33FB994002FB0FD8E9EBF1
:100A1000300105F8D0E0C448B201C0E00AEC4D4E08
:100A20004F78207B0070C2EAB5490040BCC0E0129C
:100A30000A95D0F0D0E0200104C4C0E0C4B201C0E7
:100A4000F0120824D0F0D5F0EB020874120F9609CA
:100A50001153098B5808E24C08DE42098F4F099761
:0F0A60004409974908F743099D550981460981C3
:100A6F00450981470B3D5008E62D08EA2E090D2B4D
:100A7F0008EE23090B200B262A08A64800000905BB
:100A8F003F3F3F00790AA2D5200314300509B91062
:100A9F00020404B9080104A2D52006025001042063
:100AAF0002689202B548005034C0E07F203003192D
:100ABF007F30A20272067205500F120AECC202C2F8
:100ACF0006C205C2087F30800F300503E9C0E0126F
:100ADF00083B300503D0E0F9D0E0B548CC3005171E
:100AEF007F30B9100C12083B7F583004077F788095
:100AFF0003B9080312083B3002057F2D02083B7F24
:100B0F00202008F87F2B2006F322920280CF286E38
:100B1F00756C6C2900D2011208003001F8C20178FF
:100B2F004830D50108F60208A62D5043495812083F
:100B3F00002403B405004001E4900B389312082CF5
:0D0B4F00743A12082CD20375480402098B79
:100F4700BB010CE58229F582E5833AF583E022505F
:100F570006E92582F8E622BBFE06E92582F8E222A9
:0D0F6700E58229F582E5833AF583E49322C3
:100F7400BB010689828A83F0225002F722BBFE015C
:020F8400F32256
:100F8600FAE6FB0808E6F925F0F618E6CA3AF6226C
:100F9600D083D082F8E4937012740193700DA3A3EA
:100FA60093F8740193F5828883E4737402936860FE
:060FB600EFA3A3A380DFFE
:1010B400EFB40A07740D1210BF740A309811A8997E
:1010C400B8130CC2983098FDA899C298B811F6309C
:0710D40099FDC299F5992274
:00000001FF
